{
  "contractName": "Bridge",
  "abi": [
    {
      "constant": true,
      "inputs": [
        {
          "name": "",
          "type": "address"
        }
      ],
      "name": "swaps",
      "outputs": [
        {
          "name": "accountName",
          "type": "string"
        },
        {
          "name": "accountOpenkey",
          "type": "string"
        },
        {
          "name": "amount",
          "type": "uint256"
        }
      ],
      "payable": false,
      "stateMutability": "view",
      "type": "function"
    },
    {
      "constant": false,
      "inputs": [],
      "name": "unpause",
      "outputs": [],
      "payable": false,
      "stateMutability": "nonpayable",
      "type": "function"
    },
    {
      "constant": true,
      "inputs": [
        {
          "name": "account",
          "type": "address"
        }
      ],
      "name": "isPauser",
      "outputs": [
        {
          "name": "",
          "type": "bool"
        }
      ],
      "payable": false,
      "stateMutability": "view",
      "type": "function"
    },
    {
      "constant": true,
      "inputs": [],
      "name": "currentStage",
      "outputs": [
        {
          "name": "",
          "type": "uint8"
        }
      ],
      "payable": false,
      "stateMutability": "view",
      "type": "function"
    },
    {
      "constant": true,
      "inputs": [],
      "name": "paused",
      "outputs": [
        {
          "name": "",
          "type": "bool"
        }
      ],
      "payable": false,
      "stateMutability": "view",
      "type": "function"
    },
    {
      "constant": true,
      "inputs": [],
      "name": "minTransferAmount",
      "outputs": [
        {
          "name": "",
          "type": "uint256"
        }
      ],
      "payable": false,
      "stateMutability": "view",
      "type": "function"
    },
    {
      "constant": false,
      "inputs": [],
      "name": "renouncePauser",
      "outputs": [],
      "payable": false,
      "stateMutability": "nonpayable",
      "type": "function"
    },
    {
      "constant": false,
      "inputs": [],
      "name": "renounceOwnership",
      "outputs": [],
      "payable": false,
      "stateMutability": "nonpayable",
      "type": "function"
    },
    {
      "constant": false,
      "inputs": [
        {
          "name": "account",
          "type": "address"
        }
      ],
      "name": "addPauser",
      "outputs": [],
      "payable": false,
      "stateMutability": "nonpayable",
      "type": "function"
    },
    {
      "constant": false,
      "inputs": [],
      "name": "pause",
      "outputs": [],
      "payable": false,
      "stateMutability": "nonpayable",
      "type": "function"
    },
    {
      "constant": true,
      "inputs": [],
      "name": "owner",
      "outputs": [
        {
          "name": "",
          "type": "address"
        }
      ],
      "payable": false,
      "stateMutability": "view",
      "type": "function"
    },
    {
      "constant": true,
      "inputs": [],
      "name": "isOwner",
      "outputs": [
        {
          "name": "",
          "type": "bool"
        }
      ],
      "payable": false,
      "stateMutability": "view",
      "type": "function"
    },
    {
      "constant": true,
      "inputs": [
        {
          "name": "",
          "type": "uint256"
        }
      ],
      "name": "claimParticipants",
      "outputs": [
        {
          "name": "",
          "type": "address"
        }
      ],
      "payable": false,
      "stateMutability": "view",
      "type": "function"
    },
    {
      "constant": true,
      "inputs": [
        {
          "name": "",
          "type": "address"
        }
      ],
      "name": "claims",
      "outputs": [
        {
          "name": "accountName",
          "type": "string"
        },
        {
          "name": "accountOpenkey",
          "type": "string"
        },
        {
          "name": "amount",
          "type": "uint256"
        }
      ],
      "payable": false,
      "stateMutability": "view",
      "type": "function"
    },
    {
      "constant": false,
      "inputs": [
        {
          "name": "newOwner",
          "type": "address"
        }
      ],
      "name": "transferOwnership",
      "outputs": [],
      "payable": false,
      "stateMutability": "nonpayable",
      "type": "function"
    },
    {
      "constant": true,
      "inputs": [],
      "name": "token",
      "outputs": [
        {
          "name": "",
          "type": "address"
        }
      ],
      "payable": false,
      "stateMutability": "view",
      "type": "function"
    },
    {
      "inputs": [
        {
          "name": "_token",
          "type": "address"
        },
        {
          "name": "_minTransferAmount",
          "type": "uint256"
        }
      ],
      "payable": false,
      "stateMutability": "nonpayable",
      "type": "constructor"
    },
    {
      "anonymous": false,
      "inputs": [
        {
          "indexed": false,
          "name": "_sender",
          "type": "address"
        },
        {
          "indexed": false,
          "name": "_currentStage",
          "type": "uint8"
        },
        {
          "indexed": false,
          "name": "_timestamp",
          "type": "uint256"
        }
      ],
      "name": "NextStage",
      "type": "event"
    },
    {
      "anonymous": false,
      "inputs": [
        {
          "indexed": false,
          "name": "_from",
          "type": "address"
        },
        {
          "indexed": false,
          "name": "accountName",
          "type": "string"
        },
        {
          "indexed": false,
          "name": "accountOpenkey",
          "type": "string"
        },
        {
          "indexed": false,
          "name": "amount",
          "type": "uint256"
        },
        {
          "indexed": false,
          "name": "timestamp",
          "type": "uint256"
        }
      ],
      "name": "Swap",
      "type": "event"
    },
    {
      "anonymous": false,
      "inputs": [
        {
          "indexed": false,
          "name": "_from",
          "type": "address"
        },
        {
          "indexed": false,
          "name": "accountName",
          "type": "string"
        },
        {
          "indexed": false,
          "name": "accountOpenkey",
          "type": "string"
        },
        {
          "indexed": false,
          "name": "amount",
          "type": "uint256"
        },
        {
          "indexed": false,
          "name": "timestamp",
          "type": "uint256"
        }
      ],
      "name": "Claim",
      "type": "event"
    },
    {
      "anonymous": false,
      "inputs": [
        {
          "indexed": true,
          "name": "previousOwner",
          "type": "address"
        },
        {
          "indexed": true,
          "name": "newOwner",
          "type": "address"
        }
      ],
      "name": "OwnershipTransferred",
      "type": "event"
    },
    {
      "anonymous": false,
      "inputs": [
        {
          "indexed": false,
          "name": "account",
          "type": "address"
        }
      ],
      "name": "Paused",
      "type": "event"
    },
    {
      "anonymous": false,
      "inputs": [
        {
          "indexed": false,
          "name": "account",
          "type": "address"
        }
      ],
      "name": "Unpaused",
      "type": "event"
    },
    {
      "anonymous": false,
      "inputs": [
        {
          "indexed": true,
          "name": "account",
          "type": "address"
        }
      ],
      "name": "PauserAdded",
      "type": "event"
    },
    {
      "anonymous": false,
      "inputs": [
        {
          "indexed": true,
          "name": "account",
          "type": "address"
        }
      ],
      "name": "PauserRemoved",
      "type": "event"
    },
    {
      "constant": false,
      "inputs": [
        {
          "name": "_accountName",
          "type": "string"
        },
        {
          "name": "_accountOpenkey",
          "type": "string"
        },
        {
          "name": "_amount",
          "type": "uint256"
        }
      ],
      "name": "convert",
      "outputs": [],
      "payable": false,
      "stateMutability": "nonpayable",
      "type": "function"
    },
    {
      "constant": false,
      "inputs": [],
      "name": "nextStage",
      "outputs": [],
      "payable": false,
      "stateMutability": "nonpayable",
      "type": "function"
    },
    {
      "constant": true,
      "inputs": [
        {
          "name": "str",
          "type": "string"
        }
      ],
      "name": "isValidKey",
      "outputs": [
        {
          "name": "",
          "type": "bool"
        }
      ],
      "payable": false,
      "stateMutability": "pure",
      "type": "function"
    },
    {
      "constant": true,
      "inputs": [
        {
          "name": "account",
          "type": "string"
        }
      ],
      "name": "isValidAccountName",
      "outputs": [
        {
          "name": "",
          "type": "bool"
        }
      ],
      "payable": false,
      "stateMutability": "pure",
      "type": "function"
    },
    {
      "constant": true,
      "inputs": [
        {
          "name": "accountName",
          "type": "string"
        },
        {
          "name": "key",
          "type": "string"
        }
      ],
      "name": "isValidAccount",
      "outputs": [
        {
          "name": "",
          "type": "bool"
        }
      ],
      "payable": false,
      "stateMutability": "pure",
      "type": "function"
    }
  ],
  "bytecode": "0x60806040523480156200001157600080fd5b506040516040806200335d833981018060405260408110156200003357600080fd5b8101908080519060200190929190805190602001909291905050506200006833620001b4640100000000026401000000009004565b6000600160006101000a81548160ff021916908315150217905550336001806101000a81548173ffffffffffffffffffffffffffffffffffffffff021916908373ffffffffffffffffffffffffffffffffffffffff1602179055506001809054906101000a900473ffffffffffffffffffffffffffffffffffffffff1673ffffffffffffffffffffffffffffffffffffffff16600073ffffffffffffffffffffffffffffffffffffffff167f8be0079c531659141344cd1fd0a4f28419497f9722a3daafe3b4186f6b6457e060405160405180910390a38060028190555081600660006101000a81548173ffffffffffffffffffffffffffffffffffffffff021916908373ffffffffffffffffffffffffffffffffffffffff1602179055506000600160156101000a81548160ff02191690836003811115620001a757fe5b0217905550505062000431565b620001d88160006200021e6401000000000262002d6e179091906401000000009004565b8073ffffffffffffffffffffffffffffffffffffffff167f6719d08c1888103bea251a4ed56406bd0c3e69723c8a1686e017e7bbe159b6f860405160405180910390a250565b6200023982826200030d640100000000026401000000009004565b151515620002af576040517f08c379a000000000000000000000000000000000000000000000000000000000815260040180806020018281038252601f8152602001807f526f6c65733a206163636f756e7420616c72656164792068617320726f6c650081525060200191505060405180910390fd5b60018260000160008373ffffffffffffffffffffffffffffffffffffffff1673ffffffffffffffffffffffffffffffffffffffff16815260200190815260200160002060006101000a81548160ff0219169083151502179055505050565b60008073ffffffffffffffffffffffffffffffffffffffff168273ffffffffffffffffffffffffffffffffffffffff1614151515620003da576040517f08c379a00000000000000000000000000000000000000000000000000000000081526004018080602001828103825260228152602001807f526f6c65733a206163636f756e7420697320746865207a65726f20616464726581526020017f737300000000000000000000000000000000000000000000000000000000000081525060400191505060405180910390fd5b8260000160008373ffffffffffffffffffffffffffffffffffffffff1673ffffffffffffffffffffffffffffffffffffffff16815260200190815260200160002060009054906101000a900460ff16905092915050565b612f1c80620004416000396000f3fe60806040526004361061011d576000357c0100000000000000000000000000000000000000000000000000000000900463ffffffff1680631688cf541461012257806322ece86b1461025f5780633f4ba83a1461033f57806346fbf68e146103565780635bf5d54c146103bf5780635c975abb146103f857806368841431146104275780636ef8d66d14610452578063715018a61461046957806378c508cf1461048057806382dc1ec4146105605780638456cb59146105b15780638da5cb5b146105c85780638f32d59b1461061f5780639207f95b1461064e57806397ea5ded146107b7578063a07b92711461092e578063c6788bdd146109a9578063ee3743ab14610ae6578063f2fde38b14610afd578063fc0c546a14610b4e575b600080fd5b34801561012e57600080fd5b506101716004803603602081101561014557600080fd5b81019080803573ffffffffffffffffffffffffffffffffffffffff169060200190929190505050610ba5565b604051808060200180602001848152602001838103835286818151815260200191508051906020019080838360005b838110156101bb5780820151818401526020810190506101a0565b50505050905090810190601f1680156101e85780820380516001836020036101000a031916815260200191505b50838103825285818151815260200191508051906020019080838360005b83811015610221578082015181840152602081019050610206565b50505050905090810190601f16801561024e5780820380516001836020036101000a031916815260200191505b509550505050505060405180910390f35b34801561026b57600080fd5b506103256004803603602081101561028257600080fd5b810190808035906020019064010000000081111561029f57600080fd5b8201836020820111156102b157600080fd5b803590602001918460018302840111640100000000831117156102d357600080fd5b91908080601f016020809104026020016040519081016040528093929190818152602001838380828437600081840152601f19601f820116905080830192505050505050509192919290505050610cff565b604051808215151515815260200191505060405180910390f35b34801561034b57600080fd5b50610354610f41565b005b34801561036257600080fd5b506103a56004803603602081101561037957600080fd5b81019080803573ffffffffffffffffffffffffffffffffffffffff1690602001909291905050506110e8565b604051808215151515815260200191505060405180910390f35b3480156103cb57600080fd5b506103d4611105565b604051808260038111156103e457fe5b60ff16815260200191505060405180910390f35b34801561040457600080fd5b5061040d611118565b604051808215151515815260200191505060405180910390f35b34801561043357600080fd5b5061043c61112f565b6040518082815260200191505060405180910390f35b34801561045e57600080fd5b50610467611135565b005b34801561047557600080fd5b5061047e611140565b005b34801561048c57600080fd5b50610546600480360360208110156104a357600080fd5b81019080803590602001906401000000008111156104c057600080fd5b8201836020820111156104d257600080fd5b803590602001918460018302840111640100000000831117156104f457600080fd5b91908080601f016020809104026020016040519081016040528093929190818152602001838380828437600081840152601f19601f82011690508083019250505050505050919291929050505061127b565b604051808215151515815260200191505060405180910390f35b34801561056c57600080fd5b506105af6004803603602081101561058357600080fd5b81019080803573ffffffffffffffffffffffffffffffffffffffff1690602001909291905050506118fc565b005b3480156105bd57600080fd5b506105c66119ab565b005b3480156105d457600080fd5b506105dd611b52565b604051808273ffffffffffffffffffffffffffffffffffffffff1673ffffffffffffffffffffffffffffffffffffffff16815260200191505060405180910390f35b34801561062b57600080fd5b50610634611b7b565b604051808215151515815260200191505060405180910390f35b34801561065a57600080fd5b506107b56004803603606081101561067157600080fd5b810190808035906020019064010000000081111561068e57600080fd5b8201836020820111156106a057600080fd5b803590602001918460018302840111640100000000831117156106c257600080fd5b91908080601f016020809104026020016040519081016040528093929190818152602001838380828437600081840152601f19601f8201169050808301925050505050505091929192908035906020019064010000000081111561072557600080fd5b82018360208201111561073757600080fd5b8035906020019184600183028401116401000000008311171561075957600080fd5b91908080601f016020809104026020016040519081016040528093929190818152602001838380828437600081840152601f19601f82011690508083019250505050505050919291929080359060200190929190505050611bd2565b005b3480156107c357600080fd5b50610914600480360360408110156107da57600080fd5b81019080803590602001906401000000008111156107f757600080fd5b82018360208201111561080957600080fd5b8035906020019184600183028401116401000000008311171561082b57600080fd5b91908080601f016020809104026020016040519081016040528093929190818152602001838380828437600081840152601f19601f8201169050808301925050505050505091929192908035906020019064010000000081111561088e57600080fd5b8201836020820111156108a057600080fd5b803590602001918460018302840111640100000000831117156108c257600080fd5b91908080601f016020809104026020016040519081016040528093929190818152602001838380828437600081840152601f19601f8201169050808301925050505050505091929192905050506122a9565b604051808215151515815260200191505060405180910390f35b34801561093a57600080fd5b506109676004803603602081101561095157600080fd5b81019080803590602001909291905050506122cd565b604051808273ffffffffffffffffffffffffffffffffffffffff1673ffffffffffffffffffffffffffffffffffffffff16815260200191505060405180910390f35b3480156109b557600080fd5b506109f8600480360360208110156109cc57600080fd5b81019080803573ffffffffffffffffffffffffffffffffffffffff16906020019092919050505061230b565b604051808060200180602001848152602001838103835286818151815260200191508051906020019080838360005b83811015610a42578082015181840152602081019050610a27565b50505050905090810190601f168015610a6f5780820380516001836020036101000a031916815260200191505b50838103825285818151815260200191508051906020019080838360005b83811015610aa8578082015181840152602081019050610a8d565b50505050905090810190601f168015610ad55780820380516001836020036101000a031916815260200191505b509550505050505060405180910390f35b348015610af257600080fd5b50610afb612465565b005b348015610b0957600080fd5b50610b4c60048036036020811015610b2057600080fd5b81019080803573ffffffffffffffffffffffffffffffffffffffff1690602001909291905050506125f9565b005b348015610b5a57600080fd5b50610b63612681565b604051808273ffffffffffffffffffffffffffffffffffffffff1673ffffffffffffffffffffffffffffffffffffffff16815260200191505060405180910390f35b6004602052806000526040600020600091509050806000018054600181600116156101000203166002900480601f016020809104026020016040519081016040528092919081815260200182805460018160011615610100020316600290048015610c515780601f10610c2657610100808354040283529160200191610c51565b820191906000526020600020905b815481529060010190602001808311610c3457829003601f168201915b505050505090806001018054600181600116156101000203166002900480601f016020809104026020016040519081016040528092919081815260200182805460018160011615610100020316600290048015610cef5780601f10610cc457610100808354040283529160200191610cef565b820191906000526020600020905b815481529060010190602001808311610cd257829003601f168201915b5050505050908060020154905083565b60006060829050600c8151141515610d1b576000915050610f3c565b60008090505b8151811015610f355760008282815181101515610d3a57fe5b9060200101517f010000000000000000000000000000000000000000000000000000000000000090047f010000000000000000000000000000000000000000000000000000000000000002905060617f010000000000000000000000000000000000000000000000000000000000000002817effffffffffffffffffffffffffffffffffffffffffffffffffffffffffffff191610158015610e215750607a7f010000000000000000000000000000000000000000000000000000000000000002817effffffffffffffffffffffffffffffffffffffffffffffffffffffffffffff191611155b158015610ec5575060317f010000000000000000000000000000000000000000000000000000000000000002817effffffffffffffffffffffffffffffffffffffffffffffffffffffffffffff191610158015610ec3575060357f010000000000000000000000000000000000000000000000000000000000000002817effffffffffffffffffffffffffffffffffffffffffffffffffffffffffffff191611155b155b8015610f165750602e7f010000000000000000000000000000000000000000000000000000000000000002817effffffffffffffffffffffffffffffffffffffffffffffffffffffffffffff191614155b15610f275760009350505050610f3c565b508080600101915050610d21565b5060019150505b919050565b610f4a336110e8565b1515610fe4576040517f08c379a00000000000000000000000000000000000000000000000000000000081526004018080602001828103825260308152602001807f506175736572526f6c653a2063616c6c657220646f6573206e6f74206861766581526020017f207468652050617573657220726f6c650000000000000000000000000000000081525060400191505060405180910390fd5b600160009054906101000a900460ff161515611068576040517f08c379a00000000000000000000000000000000000000000000000000000000081526004018080602001828103825260148152602001807f5061757361626c653a206e6f742070617573656400000000000000000000000081525060200191505060405180910390fd5b6000600160006101000a81548160ff0219169083151502179055507f5db9ee0a495bf2e6ff9c91a7834c1ba4fdd244a5e8aa4e537bd38aeae4b073aa33604051808273ffffffffffffffffffffffffffffffffffffffff1673ffffffffffffffffffffffffffffffffffffffff16815260200191505060405180910390a1565b60006110fe8260006126a790919063ffffffff16565b9050919050565b600160159054906101000a900460ff1681565b6000600160009054906101000a900460ff16905090565b60025481565b61113e336127ca565b565b611148611b7b565b15156111bc576040517f08c379a00000000000000000000000000000000000000000000000000000000081526004018080602001828103825260208152602001807f4f776e61626c653a2063616c6c6572206973206e6f7420746865206f776e657281525060200191505060405180910390fd5b600073ffffffffffffffffffffffffffffffffffffffff166001809054906101000a900473ffffffffffffffffffffffffffffffffffffffff1673ffffffffffffffffffffffffffffffffffffffff167f8be0079c531659141344cd1fd0a4f28419497f9722a3daafe3b4186f6b6457e060405160405180910390a360006001806101000a81548173ffffffffffffffffffffffffffffffffffffffff021916908373ffffffffffffffffffffffffffffffffffffffff160217905550565b60006060829050603581511415156112975760009150506118f7565b60457f0100000000000000000000000000000000000000000000000000000000000000028160008151811015156112ca57fe5b9060200101517f010000000000000000000000000000000000000000000000000000000000000090047f0100000000000000000000000000000000000000000000000000000000000000027effffffffffffffffffffffffffffffffffffffffffffffffffffffffffffff19161415806113e25750604f7f01000000000000000000000000000000000000000000000000000000000000000281600181518110151561137257fe5b9060200101517f010000000000000000000000000000000000000000000000000000000000000090047f0100000000000000000000000000000000000000000000000000000000000000027effffffffffffffffffffffffffffffffffffffffffffffffffffffffffffff191614155b8061148b575060537f01000000000000000000000000000000000000000000000000000000000000000281600281518110151561141b57fe5b9060200101517f010000000000000000000000000000000000000000000000000000000000000090047f0100000000000000000000000000000000000000000000000000000000000000027effffffffffffffffffffffffffffffffffffffffffffffffffffffffffffff191614155b1561149a5760009150506118f7565b6000600390505b81518110156118f057600082828151811015156114ba57fe5b9060200101517f010000000000000000000000000000000000000000000000000000000000000090047f010000000000000000000000000000000000000000000000000000000000000002905060317f010000000000000000000000000000000000000000000000000000000000000002817effffffffffffffffffffffffffffffffffffffffffffffffffffffffffffff1916101580156115a1575060397f010000000000000000000000000000000000000000000000000000000000000002817effffffffffffffffffffffffffffffffffffffffffffffffffffffffffffff191611155b158015611645575060417f010000000000000000000000000000000000000000000000000000000000000002817effffffffffffffffffffffffffffffffffffffffffffffffffffffffffffff191610158015611643575060487f010000000000000000000000000000000000000000000000000000000000000002817effffffffffffffffffffffffffffffffffffffffffffffffffffffffffffff191611155b155b80156116e85750604a7f010000000000000000000000000000000000000000000000000000000000000002817effffffffffffffffffffffffffffffffffffffffffffffffffffffffffffff1916101580156116e65750604e7f010000000000000000000000000000000000000000000000000000000000000002817effffffffffffffffffffffffffffffffffffffffffffffffffffffffffffff191611155b155b801561178b575060507f010000000000000000000000000000000000000000000000000000000000000002817effffffffffffffffffffffffffffffffffffffffffffffffffffffffffffff1916101580156117895750605a7f010000000000000000000000000000000000000000000000000000000000000002817effffffffffffffffffffffffffffffffffffffffffffffffffffffffffffff191611155b155b801561182e575060617f010000000000000000000000000000000000000000000000000000000000000002817effffffffffffffffffffffffffffffffffffffffffffffffffffffffffffff19161015801561182c5750606b7f010000000000000000000000000000000000000000000000000000000000000002817effffffffffffffffffffffffffffffffffffffffffffffffffffffffffffff191611155b155b80156118d15750606d7f010000000000000000000000000000000000000000000000000000000000000002817effffffffffffffffffffffffffffffffffffffffffffffffffffffffffffff1916101580156118cf5750607a7f010000000000000000000000000000000000000000000000000000000000000002817effffffffffffffffffffffffffffffffffffffffffffffffffffffffffffff191611155b155b156118e257600093505050506118f7565b5080806001019150506114a1565b5060019150505b919050565b611905336110e8565b151561199f576040517f08c379a00000000000000000000000000000000000000000000000000000000081526004018080602001828103825260308152602001807f506175736572526f6c653a2063616c6c657220646f6573206e6f74206861766581526020017f207468652050617573657220726f6c650000000000000000000000000000000081525060400191505060405180910390fd5b6119a881612824565b50565b6119b4336110e8565b1515611a4e576040517f08c379a00000000000000000000000000000000000000000000000000000000081526004018080602001828103825260308152602001807f506175736572526f6c653a2063616c6c657220646f6573206e6f74206861766581526020017f207468652050617573657220726f6c650000000000000000000000000000000081525060400191505060405180910390fd5b600160009054906101000a900460ff16151515611ad3576040517f08c379a00000000000000000000000000000000000000000000000000000000081526004018080602001828103825260108152602001807f5061757361626c653a207061757365640000000000000000000000000000000081525060200191505060405180910390fd5b60018060006101000a81548160ff0219169083151502179055507f62e78cea01bee320cd4e420270b5ea74000d11b0c9f74754ebdbfc544b05a25833604051808273ffffffffffffffffffffffffffffffffffffffff1673ffffffffffffffffffffffffffffffffffffffff16815260200191505060405180910390a1565b60006001809054906101000a900473ffffffffffffffffffffffffffffffffffffffff16905090565b60006001809054906101000a900473ffffffffffffffffffffffffffffffffffffffff1673ffffffffffffffffffffffffffffffffffffffff163373ffffffffffffffffffffffffffffffffffffffff1614905090565b600160009054906101000a900460ff16151515611c57576040517f08c379a00000000000000000000000000000000000000000000000000000000081526004018080602001828103825260108152602001807f5061757361626c653a207061757365640000000000000000000000000000000081525060200191505060405180910390fd5b6000806003811115611c6557fe5b600160159054906101000a900460ff166003811115611c8057fe5b111515611c8c57600080fd5b6003806003811115611c9a57fe5b600160159054906101000a900460ff166003811115611cb557fe5b101515611cc157600080fd5b611ccb85856122a9565b1515611cd657600080fd5b6002548310151515611ce757600080fd5b6000611d02655af3107a40008561287e90919063ffffffff16565b90506000611d1f655af3107a40008361291190919063ffffffff16565b9050600660009054906101000a900473ffffffffffffffffffffffffffffffffffffffff1673ffffffffffffffffffffffffffffffffffffffff166323b872dd3330846040518463ffffffff167c0100000000000000000000000000000000000000000000000000000000028152600401808473ffffffffffffffffffffffffffffffffffffffff1673ffffffffffffffffffffffffffffffffffffffff1681526020018373ffffffffffffffffffffffffffffffffffffffff1673ffffffffffffffffffffffffffffffffffffffff1681526020018281526020019350505050602060405180830381600087803b158015611e1a57600080fd5b505af1158015611e2e573d6000803e3d6000fd5b505050506040513d6020811015611e4457600080fd5b81019080805190602001909291905050505060016003811115611e6357fe5b600160159054906101000a900460ff166003811115611e7e57fe5b141561208157611e8d336129de565b60606040519081016040528088815260200187815260200182815250600360003373ffffffffffffffffffffffffffffffffffffffff1673ffffffffffffffffffffffffffffffffffffffff1681526020019081526020016000206000820151816000019080519060200190611f04929190612e4b565b506020820151816001019080519060200190611f21929190612e4b565b50604082015181600201559050507fb30007aab42fb0076621e5ddaccbd6c37c13e2fc25892fbc78709c91bd35e32d3388888442604051808673ffffffffffffffffffffffffffffffffffffffff1673ffffffffffffffffffffffffffffffffffffffff1681526020018060200180602001858152602001848152602001838103835287818151815260200191508051906020019080838360005b83811015611fd7578082015181840152602081019050611fbc565b50505050905090810190601f1680156120045780820380516001836020036101000a031916815260200191505b50838103825286818151815260200191508051906020019080838360005b8381101561203d578082015181840152602081019050612022565b50505050905090810190601f16801561206a5780820380516001836020036101000a031916815260200191505b5097505050505050505060405180910390a16122a0565b6002600381111561208e57fe5b600160159054906101000a900460ff1660038111156120a957fe5b141561229f5760606040519081016040528088815260200187815260200182815250600460003373ffffffffffffffffffffffffffffffffffffffff1673ffffffffffffffffffffffffffffffffffffffff1681526020019081526020016000206000820151816000019080519060200190612126929190612e4b565b506020820151816001019080519060200190612143929190612e4b565b50604082015181600201559050507f9882a73e249e93f2148a87b5f12b4ebedb657a77e07653469a47651bee85257c3388888442604051808673ffffffffffffffffffffffffffffffffffffffff1673ffffffffffffffffffffffffffffffffffffffff1681526020018060200180602001858152602001848152602001838103835287818151815260200191508051906020019080838360005b838110156121f95780820151818401526020810190506121de565b50505050905090810190601f1680156122265780820380516001836020036101000a031916815260200191505b50838103825286818151815260200191508051906020019080838360005b8381101561225f578082015181840152602081019050612244565b50505050905090810190601f16801561228c5780820380516001836020036101000a031916815260200191505b5097505050505050505060405180910390a15b5b50505050505050565b60006122b483610cff565b80156122c557506122c48261127b565b5b905092915050565b6005818154811015156122dc57fe5b906000526020600020016000915054906101000a900473ffffffffffffffffffffffffffffffffffffffff1681565b6003602052806000526040600020600091509050806000018054600181600116156101000203166002900480601f0160208091040260200160405190810160405280929190818152602001828054600181600116156101000203166002900480156123b75780601f1061238c576101008083540402835291602001916123b7565b820191906000526020600020905b81548152906001019060200180831161239a57829003601f168201915b505050505090806001018054600181600116156101000203166002900480601f0160208091040260200160405190810160405280929190818152602001828054600181600116156101000203166002900480156124555780601f1061242a57610100808354040283529160200191612455565b820191906000526020600020905b81548152906001019060200180831161243857829003601f168201915b5050505050908060020154905083565b61246d611b7b565b15156124e1576040517f08c379a00000000000000000000000000000000000000000000000000000000081526004018080602001828103825260208152602001807f4f776e61626c653a2063616c6c6572206973206e6f7420746865206f776e657281525060200191505060405180910390fd5b60038060038111156124ef57fe5b600160159054906101000a900460ff16600381111561250a57fe5b10151561251657600080fd5b600060018060159054906101000a900460ff16600381111561253457fe5b01905080600381111561254357fe5b600160156101000a81548160ff0219169083600381111561256057fe5b02179055507f82572380233c9a18d6d278a8c6c26e40e140b1469f0c181b6d8945f0ede53f4b33600160159054906101000a900460ff1642604051808473ffffffffffffffffffffffffffffffffffffffff1673ffffffffffffffffffffffffffffffffffffffff1681526020018360038111156125da57fe5b60ff168152602001828152602001935050505060405180910390a15050565b612601611b7b565b1515612675576040517f08c379a00000000000000000000000000000000000000000000000000000000081526004018080602001828103825260208152602001807f4f776e61626c653a2063616c6c6572206973206e6f7420746865206f776e657281525060200191505060405180910390fd5b61267e81612ae3565b50565b600660009054906101000a900473ffffffffffffffffffffffffffffffffffffffff1681565b60008073ffffffffffffffffffffffffffffffffffffffff168273ffffffffffffffffffffffffffffffffffffffff1614151515612773576040517f08c379a00000000000000000000000000000000000000000000000000000000081526004018080602001828103825260228152602001807f526f6c65733a206163636f756e7420697320746865207a65726f20616464726581526020017f737300000000000000000000000000000000000000000000000000000000000081525060400191505060405180910390fd5b8260000160008373ffffffffffffffffffffffffffffffffffffffff1673ffffffffffffffffffffffffffffffffffffffff16815260200190815260200160002060009054906101000a900460ff16905092915050565b6127de816000612c6c90919063ffffffff16565b8073ffffffffffffffffffffffffffffffffffffffff167fcd265ebaf09df2871cc7bd4133404a235ba12eff2041bb89d9c714a2621c7c7e60405160405180910390a250565b612838816000612d6e90919063ffffffff16565b8073ffffffffffffffffffffffffffffffffffffffff167f6719d08c1888103bea251a4ed56406bd0c3e69723c8a1686e017e7bbe159b6f860405160405180910390a250565b600080821115156128f7576040517f08c379a000000000000000000000000000000000000000000000000000000000815260040180806020018281038252601a8152602001807f536166654d6174683a206469766973696f6e206279207a65726f00000000000081525060200191505060405180910390fd5b6000828481151561290457fe5b0490508091505092915050565b60008083141561292457600090506129d8565b6000828402905082848281151561293757fe5b041415156129d3576040517f08c379a00000000000000000000000000000000000000000000000000000000081526004018080602001828103825260218152602001807f536166654d6174683a206d756c7469706c69636174696f6e206f766572666c6f81526020017f770000000000000000000000000000000000000000000000000000000000000081525060400191505060405180910390fd5b809150505b92915050565b6000600580549050905060008090505b81811015612a77578273ffffffffffffffffffffffffffffffffffffffff16600582815481101515612a1c57fe5b9060005260206000200160009054906101000a900473ffffffffffffffffffffffffffffffffffffffff1673ffffffffffffffffffffffffffffffffffffffff161415612a6a575050612ae0565b80806001019150506129ee565b5060058290806001815401808255809150509060018203906000526020600020016000909192909190916101000a81548173ffffffffffffffffffffffffffffffffffffffff021916908373ffffffffffffffffffffffffffffffffffffffff16021790555050505b50565b600073ffffffffffffffffffffffffffffffffffffffff168173ffffffffffffffffffffffffffffffffffffffff1614151515612bae576040517f08c379a00000000000000000000000000000000000000000000000000000000081526004018080602001828103825260268152602001807f4f776e61626c653a206e6577206f776e657220697320746865207a65726f206181526020017f646472657373000000000000000000000000000000000000000000000000000081525060400191505060405180910390fd5b8073ffffffffffffffffffffffffffffffffffffffff166001809054906101000a900473ffffffffffffffffffffffffffffffffffffffff1673ffffffffffffffffffffffffffffffffffffffff167f8be0079c531659141344cd1fd0a4f28419497f9722a3daafe3b4186f6b6457e060405160405180910390a3806001806101000a81548173ffffffffffffffffffffffffffffffffffffffff021916908373ffffffffffffffffffffffffffffffffffffffff16021790555050565b612c7682826126a7565b1515612d10576040517f08c379a00000000000000000000000000000000000000000000000000000000081526004018080602001828103825260218152602001807f526f6c65733a206163636f756e7420646f6573206e6f74206861766520726f6c81526020017f650000000000000000000000000000000000000000000000000000000000000081525060400191505060405180910390fd5b60008260000160008373ffffffffffffffffffffffffffffffffffffffff1673ffffffffffffffffffffffffffffffffffffffff16815260200190815260200160002060006101000a81548160ff0219169083151502179055505050565b612d7882826126a7565b151515612ded576040517f08c379a000000000000000000000000000000000000000000000000000000000815260040180806020018281038252601f8152602001807f526f6c65733a206163636f756e7420616c72656164792068617320726f6c650081525060200191505060405180910390fd5b60018260000160008373ffffffffffffffffffffffffffffffffffffffff1673ffffffffffffffffffffffffffffffffffffffff16815260200190815260200160002060006101000a81548160ff0219169083151502179055505050565b828054600181600116156101000203166002900490600052602060002090601f016020900481019282601f10612e8c57805160ff1916838001178555612eba565b82800160010185558215612eba579182015b82811115612eb9578251825591602001919060010190612e9e565b5b509050612ec79190612ecb565b5090565b612eed91905b80821115612ee9576000816000905550600101612ed1565b5090565b9056fea165627a7a723058200910408d9aa49f3056e7de178cecabb02f634314f4400484ab87e5113dd932120029",
  "source": "pragma solidity ^0.5.0;\r\n\r\nimport \"@openzeppelin/contracts/lifecycle/Pausable.sol\";\r\nimport \"@openzeppelin/contracts/ownership/Ownable.sol\";\r\nimport \"@openzeppelin/contracts/token/ERC20/IERC20.sol\";\r\nimport \"@openzeppelin/contracts/math/SafeMath.sol\";\r\n\r\ncontract Bridge is Pausable, Ownable {\r\n\r\n    using SafeMath for uint256;\r\n\r\n    enum Stage {Deployed, Claim, Swap, Finished}\r\n    Stage public currentStage;\r\n    uint256 public minTransferAmount;\r\n\r\n    struct Transfer {\r\n        string accountName;\r\n        string accountOpenkey;\r\n        uint256 amount;\r\n    }\r\n\r\n    mapping(address => Transfer) public claims;\r\n    mapping(address => Transfer) public swaps;\r\n    address[] public claimParticipants;\r\n    IERC20 public token;\r\n\r\n    event NextStage(address _sender, Stage _currentStage, uint256 _timestamp);\r\n    event Swap(address _from, string accountName, string accountOpenkey, uint256 amount, uint256 timestamp);\r\n    event Claim(address _from, string accountName, string accountOpenkey, uint256 amount, uint256 timestamp);\r\n\r\n    /// @dev modifier that allow to call function if current stage is bigger than specified\r\n    modifier stageAfter(Stage _stage) {\r\n        require(uint256(currentStage) > uint256(_stage));\r\n        _;\r\n    }\r\n    /// @dev modifier that allow to call function if current stage is less than specified\r\n    modifier stageBefore(Stage _stage) {\r\n        require(uint256(currentStage) < uint256(_stage));\r\n        _;\r\n    }\r\n    constructor(IERC20 _token, uint256 _minTransferAmount) public {\r\n        minTransferAmount = _minTransferAmount;\r\n        token = _token;\r\n        currentStage = Stage.Deployed;\r\n    }\r\n\r\n    /// @dev function that call specified convert strategy to convert tokens\r\n    function convert(string memory _accountName, string memory _accountOpenkey, uint256 _amount)\r\n    whenNotPaused\r\n    stageAfter(Stage.Deployed)\r\n    stageBefore(Stage.Finished)\r\n    public {\r\n        // openkey and account name validation check\r\n        require(isValidAccount(_accountName, _accountOpenkey));\r\n\r\n        // can not convert less that minimum amount\r\n        require(_amount >= minTransferAmount);\r\n\r\n        // round tokens amount to 4 decimals\r\n        uint256 intValue = _amount.div(10 ** 14);\r\n        uint256 roundedValue = intValue.mul(10 ** 14);\r\n\r\n        token.transferFrom(msg.sender, address(this), roundedValue);\r\n\r\n        if (currentStage == Stage.Claim) {\r\n            // Claim stage\r\n            addNewParticipant(msg.sender);\r\n            claims[msg.sender] = Transfer(_accountName, _accountOpenkey, roundedValue);\r\n            emit Claim(msg.sender, _accountName, _accountOpenkey, roundedValue, now);\r\n        } else if (currentStage == Stage.Swap) {\r\n            // Swap stage\r\n            swaps[msg.sender] = Transfer(_accountName, _accountOpenkey, roundedValue);\r\n            emit Swap(msg.sender, _accountName, _accountOpenkey, roundedValue, now);\r\n        }\r\n    }\r\n\r\n    function nextStage() onlyOwner stageBefore(Stage.Finished) public {\r\n        // move to next stage\r\n        uint256 next = uint256(currentStage) + 1;\r\n        currentStage = Stage(next);\r\n        emit NextStage(msg.sender, currentStage, now);\r\n    }\r\n\r\n    function addNewParticipant(address _addr) private {\r\n        uint arrayLength = claimParticipants.length;\r\n        // if address already in array than exit function\r\n        for (uint i = 0; i < arrayLength; i++) {\r\n            if (claimParticipants[i] == _addr) {\r\n                return;\r\n            }\r\n        }\r\n        // else add address to participants\r\n        claimParticipants.push(_addr);\r\n    }\r\n\r\n    function isValidKey(string memory str) public pure returns (bool) {\r\n        bytes memory b = bytes(str);\r\n        if (b.length != 53) return false;\r\n        // EOS\r\n        if (bytes1(b[0]) != 0x45 || bytes1(b[1]) != 0x4F || bytes1(b[2]) != 0x53)\r\n            return false;\r\n        for (uint i = 3; i < b.length; i++) {\r\n            bytes1 char = b[i];\r\n            // base58\r\n            if (!(char >= 0x31 && char <= 0x39) &&\r\n            !(char >= 0x41 && char <= 0x48) &&\r\n            !(char >= 0x4A && char <= 0x4E) &&\r\n            !(char >= 0x50 && char <= 0x5A) &&\r\n            !(char >= 0x61 && char <= 0x6B) &&\r\n            !(char >= 0x6D && char <= 0x7A))\r\n                return false;\r\n        }\r\n        return true;\r\n    }\r\n\r\n    function isValidAccountName(string memory account) public pure returns (bool) {\r\n        bytes memory b = bytes(account);\r\n        if (b.length != 12) return false;\r\n\r\n        for (uint i = 0; i < b.length; i++) {\r\n            bytes1 char = b[i];\r\n            // a-z && 1-5 && .\r\n            if (!(char >= 0x61 && char <= 0x7A) &&\r\n            !(char >= 0x31 && char <= 0x35) &&\r\n            !(char == 0x2E))\r\n                return false;\r\n        }\r\n\r\n        return true;\r\n    }\r\n\r\n    function isValidAccount(string memory accountName, string memory key) public pure returns (bool) {\r\n        return (isValidAccountName(accountName) && isValidKey(key));\r\n    }\r\n}\r\n",
  "sourcePath": "/home/user/Daoeth2/contracts/Bridge.sol",
  "compiler": {
    "name": "solc",
    "version": "0.5.0+commit.1d4f565a.Emscripten.clang"
  },
  "schemaVersion": "3.0.9",
  "updatedAt": "2019-10-15T09:47:37.093Z",
  "devdoc": {
    "methods": {
      "convert(string,string,uint256)": {
        "details": "function that call specified convert strategy to convert tokens"
      },
      "isOwner()": {
        "details": "Returns true if the caller is the current owner."
      },
      "owner()": {
        "details": "Returns the address of the current owner."
      },
      "pause()": {
        "details": "Called by a pauser to pause, triggers stopped state."
      },
      "paused()": {
        "details": "Returns true if the contract is paused, and false otherwise."
      },
      "renounceOwnership()": {
        "details": "Leaves the contract without owner. It will not be possible to call `onlyOwner` functions anymore. Can only be called by the current owner.     * > Note: Renouncing ownership will leave the contract without an owner, thereby removing any functionality that is only available to the owner."
      },
      "transferOwnership(address)": {
        "details": "Transfers ownership of the contract to a new account (`newOwner`). Can only be called by the current owner."
      },
      "unpause()": {
        "details": "Called by a pauser to unpause, returns to normal state."
      }
    }
  },
  "userdoc": {
    "methods": {}
  }
}